:020000040000FA
:02000000F829DD
:1000AC00013464008001840A040603190034040638
:1000BC0058287030900007308E00BF011630B00009
:1000CC0087018601880189018E170800C901D301B7
:1000DC00DD01C601C501D901D801CD01D701CC0183
:1000EC00CB01C001CA011430E7006708D6003730D5
:1000FC00D000C700D100CE00D500E7006708D400BF
:10010C006430E7006708C8006430D200DC00DA0015
:10011C00CF00C400E7006708C1007830E70067082B
:10012C00DB00C830E7006708C200FF30E700670853
:10013C00C30008006408E7006708E6006618A728F3
:10014C00AA28FF30E200AB28E201E618AE28B1285D
:10015C00FF30E000B228E0016619B528B828FF305E
:10016C00DE00B928DE01E8016208E7006808543EA9
:10017C00840067088000E20C6008E70068084A3ECB
:10018C00840067088000E00C5E08E7006808403EC9
:10019C00840067088000DE0C0130E7006708E80780
:1001AC000A306802031CDB28DC28BA280800E701A7
:1001BC00E80167084A3E84000008E0000030E100D6
:1001CC006708543E84000008E2000030E300670832
:1001DC00403E84000008DE000030DF00E515E01B27
:1001EC00051505150511E00DE50BF528E515E21BC8
:1001FC00051505150511E20DE50BFD28E515DE1BB2
:10020C00051505150511DE0DE50B05290130E70770
:10021C000318E80A0030E807003068020A300319B6
:10022C006702031C1A291B29DF2808005D08E2005D
:10023C000030E3005308E0000030E1004908DE0024
:10024C000030DF000930E7006708E8006808533E1B
:10025C0084000008E7006808543E840067088000AA
:10026C006808493E84000008E70068084A3E84009C
:10027C006708800068083F3E84000008E7006808B3
:10028C00403E8400670880000130E8026808031DC6
:10029C00502951292C296208E7006708D40060080E
:1002AC00E7006708CA005E08E7006708C00008009E
:1002BC005408E2000030E3004A08E0000030E1009E
:1002CC004008DE000030DF00E8016808553E84007D
:1002DC000008E7006808543E84006708800068083E
:1002EC004B3E84000008E70068084A3E840067081B
:1002FC0080006808413E84000008E7006808403E22
:10030C008400670880000130E7006708E8070A30BE
:10031C006802031C922993296B296208E70067087D
:10032C00DD006008E7006708D3005E08E700670897
:10033C00C90008005F206C204030EC001F30ED003D
:10034C00E401DD20EA01EB01B22900000130EA07EB
:10035C000318EB0A0030EB076D086B02031DB8297C
:10036C006C086A02031CBB29BC29AB2900306D0246
:10037C00643003196C020318C429C529E6294030DE
:10038C00EC001F30ED006E08031DCD29CE29E429A9
:10039C0007306402031CD329D429D629E401DA29B5
:1003AC000130E9006908E4076E146408031DDF29B5
:1003BC00E029E2296C20EE29A020EE296E10EE290E
:1003CC006C08B03EEC006D080318013EFF3EED00DA
:1003DC006E03031DF229F329F5295E21A7291C219F
:1003EC00A72900285620EE004030840067305720A3
:0403FC008301A029B0
:02400E00A63ECC
:00000001FF
